:020000040800F2
:10000000C00F00209D01000839310008DB280008DE
:100010003731000895100008213A00080000000060
:10002000000000000000000000000000693400082B
:1000300097100008000000005B3100086B340008D6
:10004000B7010008B7010008B7010008B7010008B0
:10005000B7010008B7010008B7010008B7010008A0
:10006000B7010008B7010008B7010008B701000890
:10007000B7010008B7010008B7010008B701000880
:10008000B7010008B7010008B7010008B701000870
:10009000B7010008B7010008B7010008B701000860
:1000A000B7010008B7010008B7010008B701000850
:1000B000B7010008B7010008B7010008B701000840
:1000C000B7010008B7010008B7010008B701000830
:1000D000B7010008B7010008153A0008B701000889
:1000E000B7010008B7010008B7010008B701000810
:1000F000B7010008B7010008B7010008B701000800
:10010000B7010008B7010008B7010008B7010008EF
:10011000B7010008B7010008B7010008B7010008DF
:10012000B7010008B7010008B7010008B7010008CF
:10013000B7010008B7010008B7010008B7010008BF
:10014000B7010008B7010008B7010008B7010008AF
:10015000B7010008B7010008D12B0008B70100085B
:10016000B7010008B7010008B7010008B70100088F
:10017000B7010008B70100080000000000000000FF
:10018000B7010008B7010008DFF80CD000F09CFCB4
:100190000048004755560008C00F00200648804719
:1001A00006480047FEE7FEE7FEE7FEE7FEE7FEE75C
:1001B000FEE7FEE7FEE7FEE7753500088901000867
:1001C0002DE9F05F0546002092469B46884606468C
:1001D000814640241BE0284641464746224600F01F
:1001E00015FB53465A46C01A914110D31146184682
:1001F000224600F0FCFA2D1A67EB01084F46224612
:100200000120002100F0F3FA17EB00094E41201EF7
:10021000A4F10104DFDC484631462A46434600F09B
:1002200000B830BCBDE8C09F40EA01039B0703D083
:1002300009E008C9121F08C0042AFAD203E011F825
:10024000013B00F8013B521EF9D27047D2B201E0E7
:1002500000F8012B491EFBD270470022F6E710B5CB
:1002600013460A4604461946FFF7F0FF204610BD24
:1002700030B505462A460B4612F8010B13F8014B20
:1002800008B1A042F8D01CB1002802D06D1CF1E7E3
:10029000284630BD10B5044604E00B7800F8013B59
:1002A00003B1491C521EF8D2204610BDCAB2401EEE
:1002B00010F8011F8A4202D00029F9D100207047AE
:1002C000421C10F8011B0029FBD1801A7047000066
:1002D0000FB400B58DB010A909900B9000914FF0AC
:1002E000FF300A9000200C900548069005480790C2
:1002F0006A4609A80F9900F0ADFA0DB05DF814FB3D
:10030000710800088F0800082DE9FF5F1D464FF0B7
:10031000FF3BD5E9014691465F464FF00008A969C9
:100320007F1C01988847296A824688470028F6D1B1
:10033000BAF1FF3F0CD024F4C064002E19DD600632
:1003400014D5BAF12B0F09D0BAF12D0F0ED103E05D
:10035000584604B000F07EB844F48064A9697F1C5C
:1003600001988847761E8246002E02DDBAF1300FD2
:1003700003D0B9F1000F26D032E0A969761E44F40B
:1003800000747F1C019888478246002E05DDBAF173
:10039000780F06D0BAF1580F03D0B9F1000F10D082
:1003A0001EE0B9F1000F02D0B9F1100F18D1A96900
:1003B000761E24F400747F1C019888478246102022
:1003C00002E0082000E00A20814609E008FB090855
:1003D000A969761E44F400747F1C01988847824600
:1003E000002E05DD4946504600F020FA0028EDDADF
:1003F000E96901988847A00502D46FF00100A8E7D9
:10040000E00725D1600613D5600502D5C8F10000CC
:1004100000E0404629680A1D2A600968220501D5C6
:10042000087015E0220701D5088011E008600FE090
:100430002868011D29600068210502D580F8008028
:1004400006E0210702D5A0F8008001E0C0F8008096
:1004500038467EE730BCBDE8C09F00002DE9FF4F65
:10046000087883B09946FF2805D0491C2D2804D070
:100470000024002008E000200BE00124F9E700EB55
:10048000800003EB4000491C0B78FF2BF7D104B12F
:10049000404200230293147819461D462D2C01D0AA
:1004A0002B2C04D1521C2D2C13D000240294AA46CC
:1004B0001478FF2C0FD00A25A3FB057801FB0581DA
:1004C0004FF0000C03FB0C11521CE3194AEB010125
:1004D000EEE70124EAE7814453EA010002D019F56E
:1004E000C87F06DA03980021C0E9001107B000F0C8
:1004F00065B90025AE4E2F46DFF8B882184600F0E9
:10050000BBFACDE90001B9F1000002DAC9F100043B
:1005100000E004460023A74A1AEB030B42EB045AFF
:1005200012E0E00707D02A4633463846414600F03D
:10053000BFF9074688462A4633461046194600F05A
:10054000B7F905460E466410002CEAD1DDE900013A
:10055000B9F1000F5A46534606DA00F01EFA3A4641
:10056000434600F01AFA05E000F0A2F93A46434685
:1005700000F09EF9029A0AB181F00041039AC2E9A3
:100580000001B3E72DE9FF4F1F468DB0D7E90146C3
:100590004FF0FF382E2045464FF000090B90B96907
:1005A0006D1C0E988847396A824688470028F6D124
:1005B000BAF1FF3F0AD024F4D064002E11DDBAF165
:1005C0002B0F08D0BAF12D0F0BD102E0404611B02D
:1005D0008DE744F48064B9696D1C0E9888478246A3
:1005E000761E6946600501D52D2000E02B208DF890
:1005F000000001F1010B0DF1200809E0B9696D1C43
:100600000E98884782460F9844F40074761E056061
:10061000002E02DDBAF1300FF0D00B998A453ED1A1
:1006200044F0800406E00F99681CA9F1010944F424
:1006300000740860B9696D1C761E0E988847824662
:100640003028F0D02BE00B998A4505D1200603D441
:1006500044F08004761E18E0504603F016FA08B302
:100660000DF11301761E44F400748B4508D2AAF1F3
:1006700030000BF8010B200607D5A9F1010003E0BB
:10068000200602D409F101008146A00502D50F9988
:10069000681C0860B9696D1C0E9888478246002E58
:1006A000D1DC53E0002E51DDBAF1650F02D0BAF172
:1006B000450F4BD1A00549D5B9696D1C24F4407490
:1006C000761E0E9888478246002E0CDD2B2804D01B
:1006D000BAF12D0F07D144F48074B9696D1C0E98DE
:1006E00088478246761EE00501D52D2100E02B21AA
:1006F00008F8011BCDF82C8021E00DF12901761EB0
:1007000044F4007488450CD2AAF1300010F0FF00C8
:1007100088F8000002D10B99884509D908F1010831
:1007200006E0E00501D5244801E042F20F70814661
:10073000B9696D1C0E98884782460F980560002E97
:1007400004DD504603F0A1F90028D6D1F9690E98CE
:100750008847FF208BF8000088F8000000200690F2
:1007600007904B466A4608A906A8FFF777FEA00542
:1007700002D46FF001002AE714F0240F0AD0E0073A
:1007800014D1DDE906123868031D3B600068C0E93A
:1007900000120BE0DDE9060100F07AF90146E007FE
:1007A00004D13868021D3A600068016028460EE7EF
:1007B000000014400000F03FF1D8FFFF30BCBDE85E
:1007C000C08F30B50B46014600202022012409E0ED
:1007D00021FA02F59D4205D303FA02F5491B04FAFA
:1007E00002F52844151EA2F10102F1DC30BD202AD9
:1007F00004DB203A00FA02F1002070479140C2F178
:10080000200320FA03F3194390407047202A04DBA9
:10081000203A21FA02F00021704721FA02F3D04079
:10082000C2F1200291400843194670473A2800D28D
:10083000303820F02002412A01D3A2F1370088424B
:1008400001D34FF0FF307047026811441378016004
:1008500018467047D1600449516104491162002172
:100860001161114600F048B949080008ED0A000876
:10087000426842B1016811F8013B23B1521EC0E940
:100880000012184670470121C160881E70474268F7
:100890005AB1C368016843B983688B4205D0491EC9
:1008A000521CC0E90012002070474FF0FF30704723
:1008B0002DE9FE4F81EA030404F0004421F00041D9
:1008C00000944FF0000B23F0004350EA01045ED087
:1008D00052EA03045BD0C3F30A54C1F30A552C4413
:1008E000A4F2F3340194A0FB0254C1F3130141F4C8
:1008F0008011C3F3130343F4801301FB024400FB94
:10090000034E840A970A44EA815447EA8357A4FBBA
:10091000076802958D0A05FB07854FEA932C04FBB7
:100920000C542705029D4FEA065847EA1637B5EBE7
:1009300008056EEB070C870E920E47EA811742EA14
:100940008312A7FB0201B6EB0B0164EB00042B0D35
:1009500043EA0C335E1844EB1C50DA465146E7FB81
:100960000201C5F313044FEA0B3343EA14534FEA71
:100970000432019C43EA0603A4F10C040294009C97
:10098000CDE900B400F097FA03B000F003B80020FE
:100990000146F9E730BCBDE8C08F2DE9F04D81EA92
:1009A000030404F0004B21F0004514464FF0000A08
:1009B00023F0004150EA050220D054EA01021DD084
:1009C000C5F30A570246C5F31303C1F31300C1F37D
:1009D0000A5640F4801543F48013A7EB0608101B59
:1009E000D64608F2FD3873EB050002D308F1010882
:1009F00001E092185B41B8F1000F03DA00200146D4
:100A0000BDE8F08D00204FF48011064684460EE0CC
:100A1000171B73EB050705D3121B63EB0503064396
:100A20004CEA010C49084FEA300092185B4150EA49
:100A30000107EDD152EA030012D082EA040083EAF2
:100A40000501084305D0101BAB4106D2012200234B
:100A500006E000224FF0004302E06FF00102531065
:100A60001AEB06004CEB085110EB0A0041EB0B01AE
:100A7000BDE8F04D00F010BA0EB540F233420292DC
:100A80000022CDE90022134600F015FA03B000BDA4
:100A900001F0004330B421F0004150EA010206D0D9
:100AA0000A0DA2F56072C1F31301002A02DC30BC0A
:100AB00000207047440F44EAC104C100E01830BC74
:100AC00000EBC25000F0B1B9064C074D06E0E068FB
:100AD00040F0010394E8070098471034AC42F6D385
:100AE000FFF756FBE05E0008005F0008C0B24FF45D
:100AF000F05100F02FBA00002DE9F34F8BB04FF00A
:100B0000000801F10C000C464FF0010B46460DF1B8
:100B1000080A01906269012101989047051E2DD0B5
:100B2000252D2CD0216A8847C0B162690121019826
:100B30009047216A88470028F7D1411E62690198D1
:100B4000904700E0761CA1690B988847216A884786
:100B50000028F7D1E1690B988847DBE7A1690B987A
:100B600088470746A84201D1761CD3E7E1690B9874
:100B700088477F1C02D1B8F1000F6FD046E10027F3
:100B800062693D463946019890472A2804D1626936
:100B90000121019890470125DFF8849262690121C3
:100BA00001989047A0F130010A290AD24F45E5DCAF
:100BB00007EB870100EB4107303FDFD445F010051C
:100BC000ECE7E90601D46FF000476C280AD04C2806
:100BD00014D0682815D06A280DD074281CD07A2823
:100BE0001AD01DE062690121019890476C2802D05B
:100BF00045F0040514E045F002050DE045F0200540
:100C00000AE06269012101989047682802D045F006
:100C1000080505E045F400656269012101989047E7
:100C2000C4E9015765283DD019DC58287AD00CDC7E
:100C3000452837D004DC252826D0412831D131E0A1
:100C400046282FD047282CD12CE05B2877D061286C
:100C500028D063287CD0642823D15AE0D0E06F28C4
:100C600048D008DC66281DD067281BD0692821D011
:100C70006E2816D127E0702845D0732868D07528D3
:100C800047D078280DD14DE0A1690B9888470546DB
:100C900025283FF469AFE1690B9888476D1C3FF444
:100CA0006AAFB3E023466A466FF001000B99FFF785
:100CB00069FC9EE045F040006060A80723464FF0C5
:100CC000000236D43EE0E8077FF447AF2068011DFC
:100CD00021600068290501D506701BE7290701D5A9
:100CE000068017E7A90703D5F117C0E9006111E7EE
:100CF00006600FE745F040006060A80723464FF00C
:100D0000080216D41EE040F60E0125EA01006060DC
:100D100016E045F040006060A80723464FF00A0245
:100D200007D40FE045F040006060A80708D52346CF
:100D300010226FF001000B99AFF3008059E007E03B
:100D4000234610226FF001000B99FFF7DDFA50E007
:100D50004FF000094F464B46632802D05B2806D06F
:100D600040E0E80601D40120A06001273AE0626972
:100D70000121019890475E2805D14FF00109626971
:100D8000494601989047216939B900210A465346DE
:100D900043F82120491C0829FADBB0B3216969B95D
:100DA000C11700EBD16253110AEB830122F01F023D
:100DB000821A01200B68904003430B606269012195
:100DC000019890475D28E8D1B9F1000F09D00020C3
:100DD000514651F82020D24341F82020401C0828D9
:100DE000F7DB02AB224600976FF001000B99AFF3DF
:100DF000008000280CDA401C08D1BBF1000F05D0A0
:100E00004FF0FF300DB000F00DB8FFE74046F9E7B6
:100E1000E90701D108F1010806444FF0000B79E61B
:100E2000CCCCCC0C30BCBDE8C08F0029A8BF70472B
:100E3000401C490008BF20F00100704710B4B0FA10
:100E400080FC00FA0CF050EA010404BF10BC7047AB
:100E500049B1CCF1200421FA04F411FA0CF118BFC5
:100E6000012121430843A3EB0C01CB1D4FEA006194
:100E70004FEA102042BF002010BC704700EBC35067
:100E800010440029A4BF10BC7047401C490008BF93
:100E900020F0010010BC704710B5141E73F100045F
:100EA00008DA401C41F1000192185B411A4301D15C
:100EB00020F0010010BD2DE9F04D92469B4611B186
:100EC000B1FA81F202E0B0FA80F220329046FFF7E8
:100ED0008EFC04460F4640EA0A0041EA0B015346E5
:100EE0005A46084313D0114653EA010019D0C8F1FD
:100EF00040025046FFF78AFC05460E4650465946CA
:100F00004246FFF774FC084305D0012004E0204668
:100F10003946BDE8F08D0020054346EAE0762C43D3
:100F200037430A986305E40AA0EB08000022FD0A93
:100F300044EA47540A3002D500200146E9E701059A
:100F400010196941DDE9084500196941BDE8F04D16
:100F5000A2E700007F2801D9002208E0064A02EB40
:100F60005002C007127800D1120902F00F020120CE
:100F70009040084070470000905D000810B511488F
:100F800002F050FD104802F04DFD104802F04AFDFD
:100F900000F05AF80EA002F045FD154800F048F8A0
:100FA000134C14A0B4F9001002F03CFDB4F9021087
:100FB00015A002F037FDB4F90410BDE8104017A0E9
:100FC00002F030BD585E0008145E0008D05D0008D5
:100FD0000A2A2A2A20546869732069732061206EC6
:100FE00065772064617461202A2A2A0A0A000000B9
:100FF00004000020414343454C45524F5F58203D7B
:10100000202564200A000000414343454C45524FCF
:101010005F59203D202564200A00000041434345DC
:101020004C45524F5F5A203D202564200A000000A5
:1010300004490968002903D0096B002900D008473A
:10104000704700000000002070B5084D0024A8681B
:1010500080476A2801D0012406E004480C38056066
:10106000296844F230408847204670BD0C000020BB
:101070000020064A01464FF400731154401C80B210
:101080009842FAD30248826001807047BC01002078
:1010900054000020FEE77047704710B590F8251007
:1010A0000024022903D00421C16301241AE001684D
:1010B0000A6822F00E020A6001680A6822F0010242
:1010C0000A6090F84410036C01F01C02012101FA3F
:1010D00002F25A6080F82510002180F82410816BFC
:1010E00001B18847204610BD70B5044600F09EF956
:1010F0000546601C00D0641C00F098F9401BA0421B
:10110000FAD370BD2DE9F04F002301270F24DFF83B
:1011100020A186E007FA03F616EA01027ED00568F0
:101120004FEA43084FF0030C0CFA08FC45EA0C05A3
:101130000560DD0800EB8508C346D8F820905D0700
:101140004FEAD56804FA08F529EA0509CBF820909A
:10115000856825EA0C0585604568B5434560C56826
:1011600025EA0C05C560C56AB543C56223F00306D0
:1011700006EB0A05D5F808C09E07360F04FA06F9F3
:1011800009EA0C08B0F1904F06D0DFF8A8C060451E
:1011900005D14FF0010C27E04FF0000C24E0DFF800
:1011A00098C0604502D14FF0020C1DE0DFF88CC002
:1011B000604502D14FF0030C16E0DFF884C06045B3
:1011C00002D14FF0040C0FE0DFF878C0604502D187
:1011D0004FF0050C08E0DFF870C0604502D14FF019
:1011E000060C01E04FF0070C0CFA06FCC44517D1C1
:1011F000D5F808C02CEA090CC5F808C0134D2E68B4
:1012000096432E602D1D2E6896432E602D1D2E6850
:1012100096432E602D1D2E68964300E000E02E6060
:101220005B1C31FA03F27FF475AF00F011B80000D7
:10123000000001400004004800080048000C00487D
:101240000010004800140048001800480004014045
:1012500030BCBDE8C08F00002DE9F84FDFF898B131
:1012600000234FF0010C4FF0030A4FF00F090BF170
:10127000040EB9E00CFA03F4224070D04D68022D40
:1012800001D0122D0ED1DD0800EB8508D8F82050D2
:101290005E07F70E09FA07F6B5430E69BE402E4306
:1012A000C8F8206007685E0091F804800AFA06F525
:1012B00008F00308AF4308FA06F848EA0708C0F840
:1012C00000804F68012F05D0022F03D0112F01D0CD
:1012D000122F13D1D0F80880CF6828EA0508B7404C
:1012E00047EA08078760D0F804800F7928EA0408E5
:1012F000C7F300179F4047EA08074760D1F804800A
:101300006FEA0807BF0706D1C76AA743C8F3C0043E
:101310009C403C43C462C468AC438D68B5402543DF
:10132000C5604C68E4005ED5344C256E45F001057F
:101330002566246E23F0030504F001040094304C6C
:101340002E19B4689D072F0F09FA07F5AC43B0F1C9
:10135000904F05D02B4DA84204D101251CE042E05E
:10136000002519E0284DA84201D1022514E0274D9F
:10137000A84201D103250FE0254DA84201D1042543
:101380000AE0244DA84201D1052505E0224DA842DE
:1013900001D1062500E00725BD402543B560DBF8F7
:1013A00000405D464E689443F60300D514432C601C
:1013B000DEF8004075464E689443B60300D51443EA
:1013C0002C600D4D08352C684E689443F60200D50C
:1013D00014432C60084D0C352C684E689443B602BB
:1013E00000D514432C605B1C0A6832FA03F57FF4C5
:1013F00041AF00F013B800000004014000100240AB
:10140000000001400004004800080048000C0048AB
:1014100000100048001400480018004818BCBDE83F
:10142000E08F0AB1816170478162704701480068AE
:10143000704700004400002090F84120202A24D169
:1014400090F84020012A20D0012280F84020242258
:1014500080F841200268136823F0010313600268DA
:10146000136823F480531360026813680B431360FE
:1014700001680A6842F001020A60202180F84110E8
:10148000002180F84010084670470220704790F80D
:101490004120202A22D190F84020012A1ED001228A
:1014A00080F84020242280F841200268136823F04D
:1014B000010313600268136823F4706343EA012197
:1014C000116001680A6842F001020A60202180F878
:1014D0004110002180F840100846704702207047F4
:1014E00010B5040013D0242084F84100206801685E
:1014F00021F001010160204600F0CEF90020606477
:1015000084F8410044F8300FA074207410BD01200D
:1015100010BD000070B5040004D094F8410000250F
:1015200010B106E0012070BD84F84050204600F064
:10153000C7F9242084F841002068016821F00101E6
:1015400001606068216820F070600861206881682F
:1015500021F400418160E0680128A06807D040F4D0
:10156000044021688860E068022803D006E040F467
:101570000040F6E721684FF4006048602068416849
:10158000114A114341602068C16821F40041C160E3
:10159000D4E904010843A16940EA01202168C86038
:1015A000D4E907010843216808602068016841F018
:1015B000010101606564202084F84100256384F8FE
:1015C0004250002070BD0000008000022DE9FF4F56
:1015D00083B00446DDE9108790F84100DDF84890BB
:1015E0009A469346202874D15FEA080014D09FB130
:1015F00094F8400001286CD0012084F84000FFF7E7
:1016000015FF0646012200901923D103204601F060
:1016100033FA002871D103E04FF4007060646CE08D
:10162000222084F84100402084F8420000256564AF
:10163000C4F8248067856563CDE9009653465A4611
:101640002046049901F09EF910B184F8405054E00E
:10165000618D3548FF274FF080784FF0007AFF29E1
:1016600004D927853A464346009005E0618D2185DF
:10167000009094F8282053462046049901F0E6F99A
:101680004B46002204212046009601F0F5F9A0BB4C
:101690002068406A616A0870606A401C6062208D40
:1016A000401E81B22185608D401E6085608DD8B15D
:1016B000D1B94B46002280212046009601F0DCF98A
:1016C000D8B9608DFF2805D927853A46434600954D
:1016D00006E026E0608D2085009594F8282053468A
:1016E0002046049901F0B2F9608D0028C8D1324635
:1016F0004946204601F0ECF918B1012007B000F08E
:1017000017B821682020C86121684A68074B1A4031
:101710004A6084F8410084F8425084F84050002028
:10172000ECE70220EAE700000024008000E800FE69
:1017300030BCBDE8C08F00002DE9FF4F83B00446E8
:10174000DDE9108790F84100DDF848909A4693460D
:10175000202871D15FEA080014D09FB194F84000AE
:10176000012869D0012084F84000FFF75FFE06469B
:10177000012200901923D103204601F07DF90028B1
:101780006ED103E04FF40070606469E0212084F8BA
:101790004100402084F8420000256564C4F824809C
:1017A00067856563CDE9009653465A4620460499FD
:1017B00001F01AF910B184F8405051E0608DFF2714
:1017C0004FF080784FF0007AFF2804D927853A46F9
:1017D0004346009505E0608D2085009594F828200B
:1017E00053462046049901F031F9324649462046D5
:1017F00001F094F9A0BB606A216800788862606A91
:10180000401C6062608D401E6085208D401E80B24D
:101810002085618DD9B1D0B94B4600228021204668
:10182000009601F029F9D8B9608DFF2805D92785E0
:101830003A464346009506E026E0608D20850095F7
:1018400094F8282053462046049901F0FFF8608D53
:101850000028CAD132464946204601F039F918B16C
:10186000012007B000F014B820682021C161206871
:101870004268064B1A40426084F8411084F8425096
:1018800084F840500020ECE70220EAE700E800FE80
:1018900030BCBDE8C08F000000680649884208D10E
:1018A0000548816D21F400118165C0210348FFF7CF
:1018B00029BC70470054004000100240000400485A
:1018C00010B586B0044614216846FEF7C6FC1249DE
:1018D000206888421ED1114CE06C40F00200E064A8
:1018E000E06C694600F002000590C02000901220D4
:1018F00001900120029003200390042004900848E6
:10190000FFF7AAFCA06D40F40010A065A06D00F4E4
:101910000010059006B010BD0054004000100240B9
:101920000004004802480168491C0160704700003B
:101930004400002010B50024032000F065F80020CA
:1019400000F008F808B1012401E000F01BF820467F
:1019500010BD000070B5054609484FF47A710024A7
:101960000068B0FBF1F000F0B9FD08B1012404E01B
:1019700000222946501E00F027F8204670BD0000C6
:1019800048000020094808B5016E41F001010166D8
:10199000016E01F001010091816D41F0805181657E
:1019A000806D00F08050009008BD000000100240E3
:1019B00000F01F02012191404009800000F1E02069
:1019C000C0F8001170470000F0B40E4B1B680C46C5
:1019D000C3F30223C3F10705042D00D90425191D03
:1019E000072901D2002300E0DB1E012606FA05F1DB
:1019F000491E214099409E40761E16403143F0BC5E
:101A000001F09BBB0CED00E0064900F007020868FE
:101A10004FF6FF03184040EA0220034A10430860D3
:101A2000704700000CED00E00000FA051649B0F523
:101A3000007F0868C0F3412009D0022805D008685B
:101A400020F4C06040F480600860002070470128E6
:101A5000FBD0086820F4C06040F4007008600B48B8
:101A60003222006850430A4AB0FBF2F0401C00E00A
:101A7000401E4A69520501D50028F9D14869400540
:101A8000E3D50320704700000070004048000020AC
:101A900040420F000248006800F4C0607047000038
:101AA000007000400248016841F480710160704795
:101AB000007000400248016841F004010160704775
:101AC000001002402DE9F84F044600270088E54D3C
:101AD0003E46010504F1200B1DD5606E78B1B0F5CE
:101AE000800F11D0B0F5000F04D0B0F5400F22D018
:101AF00001270FE0E86840F48030E8601BE0002137
:101B0000201D01F02BFB03E00021584601F0BCFB37
:101B1000070010D03E462088C00426D5A06EC0B174
:101B2000B0F1807F1AD0B0F1007F0DD0B0F1407FCE
:101B300019D0012718E0D5F88800616E20F4400024
:101B40000843C5F88800E6E7E86840F48030E860BC
:101B500009E00021201D01F001FB03E000215846AF
:101B600001F092FB0746F7B13E46206880033AD564
:101B7000A86D4FF00008C00009D4A86D40F0805057
:101B8000A865A86D4FF0010800F080500090DFF8C4
:101B9000D8A2DAF8001041F48071CAF80010FFF7FB
:101BA00045FC814610E0D5F88800A16E20F0407019
:101BB0000843C5F88800D8E7FFF738FCA0EB090018
:101BC000022801D9032705E0DAF80000C005F3D5A3
:101BD000002F7CD04FEA0706B8F1000F03D0A86DA4
:101BE00020F08050A8652078C00707D0D5F888007D
:101BF000A16B20F003000843C5F888002078800717
:101C000007D5D5F88800E16B20F00C000843C5F833
:101C100088002078400707D5D5F88800216C20F08F
:101C200030000843C5F888002078000707D5D5F8AC
:101C30008800616C20F0C0000843C5F88800207857
:101C4000C00607D5D5F88800A16C20F44070084381
:101C5000C5F888002078800607D5D5F88800E16CA3
:101C600020F440600843C5F888002088800507D527
:101C7000D5F88800E16D20F440200843C5F88800BD
:101C80002088400507D5D5F88800216E20F4401043
:101C90000843C5F888002078400607D5D5F88800A5
:101CA000216D20F440500843C5F8880020780006D4
:101CB00007D5D5F88800616D20F440400843C5F889
:101CC00088002088C00509D5D5F8880000E01CE010
:101CD000A16D20F440300843C5F8880020884FF0FB
:101CE000006780044FF080684FD5D5F88800E16E1A
:101CF00020F040600843C5F88800E06EB8423CD14F
:101D0000E86840F48010E8603FE0D5F8900010F4F7
:101D1000407015D0D4F88410814211D0D5F89000CD
:101D2000D5F8901020F4407041F48031C5F890103F
:101D3000D5F8901021F48031C5F89010C5F89000C6
:101D4000C00710D0FFF772FB074641F2883906E062
:101D5000FFF76CFBC11B494501D903263CE7D5F8C9
:101D600090008007F4D5D5F89000D4F8841020F4C2
:101D700040700843C5F890002EE7404505D1012189
:101D8000201D01F0EBF900B106462068000317D5CD
:101D9000D5F88800216F20F040600843C5F888001E
:101DA000206FB84204D1E86840F48010E86007E092
:101DB000404505D10121201D01F0D0F900B10646B2
:101DC0002068400317D5D5F88800616F20F0406087
:101DD0000843C5F88800606FB84204D1E86840F451
:101DE0008010E86007E0404505D10121201D01F089
:101DF000B5F900B10646208840041AD5D5F8880008
:101E0000A16F20F040500843C5F88800A06FB0F1E2
:101E1000805F03D0B0F1005F05D00AE00221201DF1
:101E200001F09CF903E00221584601F02DFA00B1BF
:101E300006462088000407D5D5F88800E16F20F019
:101E400080400843C5F888002068C00307D555F8CE
:101E5000880FD4F8801020F00040084328603046F6
:101E600000F004B8001002400070004018BCBDE84B
:101E7000E08F00002DE9F0470F46050058D03F4E97
:101E8000306800F00700B84209D2306820F007003F
:101E900038433060306800F00700B84248D12878F5
:101EA000374CC0072CD06868032811D0022812D004
:101EB000216898B1490500293ADAA16821F00301A7
:101EC0000143A160FFF7B2FA804641F2883910E081
:101ED00021688901EFE721688903ECE78907EAE7D0
:101EE000FFF7A4FAA0EB0801494502D90320BDE899
:101EF000F087A068696800F00C00B0EB810FEFD1AB
:101F00002878800705D5A068A96820F0F00008436C
:101F1000A060306800F00700B8420BD9306820F0AC
:101F2000070038433060306800F00700B84201D045
:101F30000120DCE72878400705D5A068E96820F48F
:101F4000E0600843A0602878000706D5A0682969EA
:101F500020F4605040EAC100A06000F03BF8A168A6
:101F6000084AC1F30311515C01F01F01C840064942
:101F70000860BDE8F0470020FFF7ECBC00200240FD
:101F800000100240485D000848000020054806494E
:101F900000688968054AC1F30221515C01F01F0104
:101FA000C84070474800002000100240885D0008CB
:101FB0000548064900688968054AC1F3C221515C99
:101FC00001F01F01C8407047480000200010024087
:101FD000885D000870B52549002318468A68CC68DA
:101FE00012F00C0204F00306214C4FEA640509D0FC
:101FF0000C2A05D0042A26D0082A00D1284670BD14
:10200000012E10D10B681B0704D4D1F89430C3F310
:10201000032302E00B68C3F30313164E56F8233074
:102020007AB10C2AEBD1C86800F00302C868C0F38B
:102030000210401C022A08D0032A09D0B3FBF0F09A
:1020400008E0184670BD204670BDB4FBF0F001E01A
:10205000B5FBF0F0CA68C968C2F306225043C1F369
:102060004161491C4900B0FBF1F070BD0010024015
:102070000024F400585D00082DE9F84305007CD0E9
:10208000FD4CA06800F00C06E06800F0030728781B
:10209000C00661D576B10C2E01D1012F0AD0A869F6
:1020A0000028206878D040F001002060FFF7BEF9DA
:1020B000804659E02068800702D5A8690028DED054
:1020C000286A2168090703D5216801F0F00104E0BE
:1020D000D4F89410F02202EA1111884215D901F0C7
:1020E00057F9002849D1206840F008002060206896
:1020F000296A20F0F000084320606068E96920F454
:102100007F4040EA0120606015E0206840F0080050
:1021100020602068296A20F0F00008432060606891
:10212000E96920F47F4040EA01206060286A01F0FC
:102130002FF90028D6D1FFF74DFFA168CF4AC1F390
:102140000311515C01F01F01C840CD490860002017
:10215000FFF700FC00287DD12FE000BFFFF766F9F4
:10216000A0EB0800022876D820688007F6D5206802
:1021700040F008002060206801E0BBE00CE0296A24
:1021800020F0F000084320606068E96920F47F4097
:1021900040EA0120606010E020F001002060FFF7BD
:1021A00045F9804606E000BFFFF740F9A0EB0800C4
:1021B0000228D8D820688007F6D42878C00740D0F5
:1021C000082E18D00C2E01D1032F14D06868B0F55A
:1021D000803F17D0B0F5A02F206817D020F48030B2
:1021E0002060206820F4802020606868E0B1FFF75C
:1021F0001DF9804614E02068800322D56868002815
:1022000078D01EE0206840F48030EDE740F4802074
:102210002060F7E7FFF70AF9A0EB08006428A2D8CE
:1022200020688003F6D50CE0FFF700F9804605E052
:10223000FFF7FCF8A0EB0800642894D8206880031E
:10224000F6D4287880073BD5042E11D00C2E04D16B
:10225000022F01E036E1A1E00AD0E86800282068FA
:102260001ED040F480702060FFF7E0F807460CE0D5
:10227000206840050CD5E8680028C1D008E000BF00
:10228000FFF7D4F8C01B022893D820684005F7D583
:102290006068297C20F0F85040EA016060600FE03F
:1022A00020F480702060FFF7C1F8074605E000BF0A
:1022B000FFF7BCF8C01B022870D820684005F7D48F
:1022C0002878000729D568690028D4F8940012D02E
:1022D00040F00100C4F89400FFF7A8F8074604E0B6
:1022E000FFF7A4F8C01B022858D8D4F89400800740
:1022F000F6D512E0EDE020F00100C4F89400FFF7FD
:1023000095F8074605E000BFFFF790F8C01B0228CC
:1023100044D8D4F894008007F6D42878400768D5CC
:10232000A06D0027C00008D4A06D40F08050A065CB
:10233000A06D012700F08050009052480168C90547
:1023400012D40168814641F480710160FFF76EF894
:10235000804605E0FFF76AF8A0EB080002281DD8C8
:10236000D9F80000C005F5D5A868012817D00528C0
:10237000D4F8900018D020F00100C4F89000D4F8F0
:10238000900020F0040000BFC4F89000A86841F25B
:102390008839D0B1FFF74AF8804611E06BE0D4F8F5
:1023A000900040F00100EFE740F00400C4F8900016
:1023B000F5E700BFFFF73AF8A0EB080149455AD806
:1023C000D4F890008007F5D50EE0FFF72FF880468F
:1023D00006E000BFFFF72AF8A0EB0801494570D8D6
:1023E000D4F890008007F5D41FB1A06D20F0805084
:1023F000A065A86AF0B30C2E6BD00228206820F0EC
:102400008070206004D0206810F0205F47D04AE040
:10241000FFF70CF8064604E0FFF708F8801B0228D7
:102420004FD820688001F7D4286BE96A0001103882
:102430000843696BAA6B0902120941EA4241084349
:10244000A98F114A490802EB4151084395F8401001
:102450004908120102EB41610843E060206840F046
:1024600080702060E06840F08070E060FEF7DEFF82
:10247000054610E02BE024E000100240485D000813
:1024800048000020007000400000E0FFFEF7CEFF93
:10249000401B022815D820688001F7D517E0E068B6
:1024A00020F00300E060E0680B490840E060FEF7C0
:1024B000BDFF054608E000BFFEF7B8FF401B02283D
:1024C00002D90320BDE8F88320688001F4D40020FD
:1024D000F8E70120F6E70000FFFFEEFE10B5401E12
:1024E000B0F1807F01D3012010BD4FF0E024606186
:1024F0000F21601700F021FE0020A061072020615D
:10250000002010BD704770472DE9F0410268044675
:10251000D0691168936810F00F0F4FF000055BD081
:1025200003F0010601F49077374369D0C70707D05D
:10253000CF0505D501271762626F42F0010262677D
:10254000820708D5DA0706D0276802223A62626F4E
:1025500042F004026267420708D5DA0706D0236812
:1025600004221A62626F42F00202626702070AD511
:1025700001F02002324306D0236808221A62626FFB
:1025800042F008026267626F002A32D0800605D5E9
:10259000880603D5216E09B120468847606F000781
:1025A00003D420688068400625D5204601F0A0F8B5
:1025B00020688168490619D5816821F04001816051
:1025C000E06E98B120498163E06EFEF766FD002859
:1025D0000FD0E06E816B06E0860611D58E060FD512
:1025E000216E1EE02046BDE8F04108472046FFF777
:1025F0008AFFBDE8F0812046FFF785FF6567F8E7B1
:10260000C60209D55B0207D54FF480101062204640
:10261000BDE8F041FFF776BF030605D50B0603D5ED
:10262000616E0029DED1E4E74006E2D54806E0D538
:102630001168204621F040011160202184F87110BA
:10264000656600F049F9D4E7DD36000810B50400EE
:1026500003D094F8710010B107E0012010BD0020F4
:1026600084F87000204600F027F8242084F87100D8
:102670002068016821F001010160204601F048F85E
:102680000128EBD0606A10B1204600F095FF206869
:10269000416821F4904141602068816821F02A015D
:1026A00081602068016841F0010101602046BDE8B9
:1026B000104000F0E5BF000030B587B0044614219B
:1026C0006846FDF7CAFD24682F4D00222F480221DD
:1026D0000323AC422BD1C46D44F00104C465C46D26
:1026E00004F001040594C46C44F00204C464C06C9A
:1026F00000F00200059098028DE80F000820049079
:1027000069462348FEF7A8FD002211464620FFF740
:102710005BF94620FFF74CF91E4801680A6842F051
:1027200020020A600068016841F0100129E01A4D9A
:10273000AC4227D1846D44F400348465846D04F484
:1027400000340594C46C44F00104C464C06C00F00F
:10275000010005900C208DE80F00072004906946C9
:102760004FF09040FEF778FD012200212620FFF770
:102770002BF92620FFF71CF908480068016841F092
:102780002001016007B030BD008000400010024011
:1027900000040048BC000020004400403401002038
:1027A00070B500681B49884232D11B4D2868C26948
:1027B000120703D508220262286802622868C269EB
:1027C000164C92064FF000060DD520220262B4F995
:1027D0000000B0F5007F05DA898C114A1154401CC5
:1027E000208000E026802868C069C043C0060FD45E
:1027F00020884FF6FF7382B207480949783000F00D
:1028000013F8084901200870268029681020086202
:1028100070BD000000800040BC000020540000207B
:10282000BC010020400000202DE9F843044690F848
:1028300071001F4616460D4620284BD1C5B1BEB1CA
:1028400094F87000012845D0012084F870004FF002
:102850000008C4F87480212084F87100FEF7E6FDBA
:10286000A4F850608146A4F852604FF4805615E0F9
:102870000120BDE8F8838021204601F099F8D8B9FD
:10288000A068B04201D12069C0B115F8010B2168E0
:102890000885B4F85200401EA4F85200B4F8520063
:1028A0004B464FF0000200970028E4D14FF0400162
:1028B000204601F07DF830B10320DAE735F8020B4D
:1028C000C0F30800E3E7202084F8710084F87080EA
:1028D0000020CEE70220CCE77047FEE701688A6956
:1028E000D243920701D400228A6200688169C943F9
:1028F000C90703D0816941F001018161704700007F
:102900002DE9F0410446006890460E468069C043B8
:10291000C00633D40025202720688069C043800684
:1029200015D5701CF8D0FEF781FDA0EB0800B04271
:1029300001D8002EF0D154F8440F40F0200044F8A4
:1029400004096770A57025700120BDE8F081216839
:102950001020C8612068C7612046FFF7BFFF54F808
:10296000440B4168064A11404160206840F0040071
:1029700044F820096777A5772577E5E70020E4E7A5
:1029800000E800FE2DE9F84304461646DDE9089705
:1029900014489846DAB200900023204600F056F81A
:1029A0003A464946204600F0B9F8B8B9F5B2B8F150
:1029B000010F08D02168300A88623A46494620460D
:1029C00000F0ACF850B9206885624B4600224021E7
:1029D0002046009700F050F8002800D00120BDE804
:1029E000F8830000002000802DE9F84304461646D5
:1029F00015489846DDE90897DAB2C30200902046F0
:102A000000F024F83A464946204600F087F8B8B965
:102A1000F5B2B8F1010F08D02168300A88623A4651
:102A20004946204600F07AF850B9206885624B4646
:102A3000002280212046009700F01EF8002800D0D8
:102A40000120BDE8F883000000200080F0B5056893
:102A5000059C68684FF48066064FC1F3090106EAD9
:102A6000545641EA02413E431943B04321430843CF
:102A70006860F0BDFF63FF032DE9F0411D46174676
:102A80000E460446DDF8188008E0681C06D0FEF704
:102A9000CDFCA0EB0800A8420BD855B12068806996
:102AA00036EA000012D00020B842EED00020BDE887
:102AB000F08154F8440F40F0200044F8040920202D
:102AC00060700020A07020700120F0E70120EBE78B
:102AD00070B516460D4604460DE03246294620469E
:102AE000FFF70EFF08B1012070BDFEF79FFC801BB1
:102AF000A84207D835B120688069C0438006ECD46D
:102B0000002070BD54F8440F40F0200044F8040940
:102B1000202060700020A0702070E4E770B5164699
:102B20000D4604460FE0324629462046FFF7E8FEF0
:102B300008B1012070BD681C05D0FEF777FC801B32
:102B4000A84207D835B120688069C0438007EAD41D
:102B5000002070BD54F8440F40F0200044F80409F0
:102B6000202060700020A0702070E2E710B5FEF712
:102B7000B7FCBDE8104000F03FB9FEB50D46064673
:102B8000DDE908014FF47A748DE8130029463046D8
:102B9000FEF71CFD040003D029463046FFF7E6FF90
:102BA0002046FEBDFEB50D460646DDE908014FF4A0
:102BB0007A748DE8130029463046FEF7BDFD040007
:102BC00003D029463046FFF7D1FF2046FEBD000066
:102BD0000148FFF7E5BD0000BC00002010B5102142
:102BE000D42000F013FC20F0F0021021BDE81040CA
:102BF000D42000F029BC10B504461021D42000F0E8
:102C000005FC20F0FC02E1B20A431021D42000F0C0
:102C10001BFC1221D42000F0F9FB20F0440242EA10
:102C200014221221BDE81040D42000F00DBC10B5D4
:102C300004461521D42000F0E9FB20F010020CB16D
:102C400042F010021521BDE81040D42000F0FCBB7A
:102C500010B500F0D1F80F21BDE81040D42000F0ED
:102C6000D5BB000070B505462DED028B86B0002463
:102C70009FED248A1021D42000F0C8FB06460623CD
:102C800003AA2821D42000F0D3FB03A80DF10402ED
:102C900000EB440310F814105B7801EB032122F8D9
:102CA0001410641CE4B2032CF2D316F00C0006D00E
:102CB00004280DD0082805D00C280BD105E09FED85
:102CC000128A07E09FED118A04E09FED118A01E06E
:102CD0009FED108A5FF0000132F9110000EE100A3A
:102CE000B8EEC00A20EE080ABDEEC00A10EE100AC7
:102CF00025F81100491CC9B20329EDD306B0BDEC7B
:102D0000028B70BD0000000023DB793D23DBF93D21
:102D100023DB793E23DBF93E2DE9F04387B0142114
:102D20006846FDF79AFA3048C16C41F00401C1646D
:102D3000C16C01F004010591C16C41F08001C164D6
:102D4000C16C01F080010591C16C41F00101C164C9
:102D5000C16C01F001010591C16C41F00201C16437
:102D6000C06C4FF0904700F0020005900022022155
:102D70003846FEF756FBDFF87490002220214846C3
:102D8000FEF74FFBDFF868804FF480560022314693
:102D90004046FEF746FB0220009001250024CDE9C5
:102DA0000154694638460394FEF756FA20200090F5
:102DB000CDE90154694648460394FEF74DFA009662
:102DC000CDE90154694640460394FEF745FAA8024E
:102DD00000900848CDE9010469464846FEF73CFAF0
:102DE00007B0BDE8F0830000001002400008004872
:102DF0000004004800001110134810B5114901608B
:102E00001249416000210122C0E9021201614161C1
:102E1000C1610162FEF77EFB08B1FEF73DF90021BA
:102E20000948FEF709FB08B1FEF736F9002106480C
:102E3000FEF72DFB002803D0BDE81040FEF72CB9AB
:102E400010BD00000054004070000020EC9C901069
:102E500010B50F480D490C2201604FF41651416026
:102E600000218160C160C0E9041281610162416298
:102E7000FFF7ECFB002807D0BDE810404FF4C67206
:102E800004A108A000F0CEBD10BD000000800040ED
:102E9000BC0000202E2E2F5372632F6D61696E2EA1
:102EA000630000006572726F722066696C653A2576
:102EB000733B6572726F72206C696E652025643B8E
:102EC0000A00000010B510480E490C2201604FF4B2
:102ED000E131416000218160C160C0E9041281617B
:102EE000C16101624162FFF7B1FB002808D00749C8
:102EF000BDE8104040F2AF1201F1100000F092BDA9
:102F000010BD00000044004034010020942E000851
:102F10000FB4522230B5B9B03CA91BA85A9DFDF799
:102F200083F9BDF84201ADF8BE0051983090BDF86C
:102F30004801ADF8C400BDF84A01ADF8C60053A978
:102F400015220C4632A8FDF76FF99DF861018DF846
:102F5000DD009DF862018DF8DE00599838906822F6
:102F60001FA968461A95FDF75FF90DF16C0C9CE8F6
:102F70000F0000F0A1F852223CA91AA8FDF754F95D
:102F8000BDF84201ADF8BA0051982F90BDF8480144
:102F9000ADF8C000BDF84A01ADF8C20015222146C7
:102FA00031A8FDF741F99DF861018DF8D9009DF830
:102FB00062018DF8DA005998379068221EA9684698
:102FC000FDF732F91AAC94E80F0000F010F839B0B0
:102FD00030BC5DF814FB0FB44FF6FF7310B501223F
:102FE00020A902A8FFF720FC10BC5DF814FB0FB469
:102FF000522210B5BAB03CA91BA8FDF715F9BDF8CF
:103000004201ADF8BE0051983090BDF84801ADF8CE
:10301000C400BDF84A01ADF8C60053A915220C46FC
:1030200032A8FDF701F99DF861018DF8DD009DF8EA
:1030300062018DF8DE00599838900D201A906822B0
:103040001FA96846FDF7F0F80DF16C0C9CE80F0025
:10305000FFF7C1FF52223CA91BA8FDF7E5F8BDF818
:103060004201ADF8BE0051983090BDF84801ADF86E
:10307000C400BDF84A01ADF8C6001522214632A8A9
:10308000FDF7D2F89DF861018DF8DD009DF8620131
:103090008DF8DE00599838900A201A9068221FA9EE
:1030A0006846FDF7C1F81BAC94E80F00FFF793FFEB
:1030B0003AB010BC5DF814FB0FB4F0B5B9B055AE22
:1030C00032AF1FAC5C9D2FE052223EA91BA8FDF73A
:1030D000ABF8BDF84A01ADF8BE0053983090BDF88A
:1030E0005001ADF8C400BDF85201ADF8C60015227C
:1030F00031463846FDF798F89DF869018DF8DD00F6
:103100009DF86A018DF8DE005B98389015F8010B88
:103110001A90682221466846FDF786F80DF16C0C7E
:103120009CE80F00FFF757FF28780028CCD139B072
:10313000F0BC5DF814FBFEE770470907090E002894
:1031400006DA00F00F0000F1E02080F8141D70474F
:1031500000F1E02080F80014704770472DE9F0413D
:10316000444C05468846E0680026810728680DD053
:10317000E16801F00301814216D1A8B1E0686968F5
:10318000C0F30210401C88420ED120E0012804D078
:10319000022805D0032807D108E02168890701E04B
:1031A00021684905002907DB01265FE021688903C2
:1031B00002D421684903F5E7E1686A686FF00F03FC
:1031C00021F0730103EB021211430143E160206817
:1031D00020F080602060FEF729F9074605E000BF77
:1031E000FEF724F9C01B022837D820680001F7D465
:1031F000B8F1000F18D0B8F1010F1ED0287D4FF0A4
:103200007E41400801EB4060A96840EA0120216945
:10321000194A114008432061206840F08060206016
:10322000FEF704F907461AE0A868E96800020909F0
:1032300040EA41402169114AEBE7288A10494008D9
:1032400001EB4050A96840EA012021690D4AE0E7FE
:10325000FEF7ECF8C01B022801D9032606E020681F
:103260000001F5D52069A969084320613046BDE811
:10327000F081000000100240FF80FFF9FF80FDFF99
:103280000000E0FFFF809FFF2DE9F0413D4C064626
:103290008846E0680025810730680DD0E16801F0BC
:1032A0000301814216D1A8B1E0687168C0F3021031
:1032B000401C88420ED120E0012804D0022805D00D
:1032C000032807D108E02168890701E02168490542
:1032D000002907DB012551E02168890302D4216818
:1032E0004903F5E7E16872686FF00F0321F073019D
:1032F00003EB021211430143E160206820F080508B
:103300002060FEF793F8074605E000BFFEF78EF851
:10331000C01B022829D820688000F7D4B8F1000F1C
:1033200015D0307C4FF07E41400801EB4060B16821
:1033300040EA01206169144A114008436061206835
:1033400040F080502060FEF771F807460FE0B0684B
:10335000F1680002090940EA414061690B4AEBE764
:10336000FEF764F8C01B022801D9032506E0206897
:103370008000F5D560697169084360612846BDE841
:10338000F081000000100240FF80FFF9FF80FDFF88
:10339000F8B51C4D06460024A86DC00002D5FEF706
:1033A00079FB0DE0A86D40F08050A865A86D00F095
:1033B00080500090FEF76EFBA96D21F08051A96549
:1033C000B0F5007F04D0802E07D94FF003040AE047
:1033D000802E08D9A02E01D804E001D1022402E0F9
:1033E000702E00D101240848016821F00701214313
:1033F0000160006800F00700A04201D00120F8BD84
:103400000020F8BD00100240002002400EB500224E
:103410008DF80820012302AACDE900230A460146BF
:103420000248FFF7AAFB9DF808000EBD70000020BF
:103430001CB5CDE900230A46014601230148FFF7E8
:103440009CFB1CBD7000002007B582B0012304AABC
:10345000CDE900230A4601460248FFF7A3FB05B069
:1034600000BD0000700000207047FEF75BBA00004E
:10347000F0B5B9B0442122A8FCF7EFFE142133A81F
:10348000FCF7EBFE88216846FCF7E7FEFEF70AFB37
:103490002B4850F8901F21F01801016014200125DD
:1034A000002424952290CDE9285402266020CDE9FD
:1034B0002C652A9028200727CDE92E50CDE93076BB
:1034C000329622A8FEF7D8FD0F2033900320CDE9D5
:1034D00034043694042133A83794FEF7CBFC20B192
:1034E000E62218A11BA000F09DFA44F262000F949E
:1034F00000904FF44060CDE913044FF080501E90CF
:103500001020CDE9025001950005CDE90660CDE916
:1035100004766846FEF7D6FA20B1F72209A10DA07D
:1035200000F080FA4FF40070FEF780FA20B1FD221F
:1035300004A108A000F076FAFEF7BCFA39B0F0BD9D
:10354000001002402E2E2F5372632F6D61696E2E74
:10355000630000006572726F722066696C653A25BF
:10356000733B6572726F72206C696E652025643BD7
:103570000A0000000D48016841F4700101600C4828
:10358000016841F001010160002181600268094B7E
:103590001A4002608214C260026822F48022026033
:1035A00081610249C00380390860704788ED00E0FE
:1035B00000100240FFFFF6EA90F82410C90706D079
:1035C00001684A68836A22F400321A434A6090F81C
:1035D0002410890706D501684A68C36A22F480323C
:1035E0001A434A6090F82410490706D501684A68D2
:1035F000036B22F480221A434A6090F824100907D2
:1036000006D501684A68436B22F400421A434A60B7
:1036100090F82410C90606D501688A68836B22F4E5
:1036200080521A438A6090F82410890606D50168F2
:103630008A68C36B22F400521A438A6090F82410FF
:10364000490611D501684A68036C22F480121A43B6
:103650004A60016CB1F5801F06D101684A68436C6D
:1036600022F4C0021A434A6090F82410090606D5D5
:1036700001684A68806C22F4002202434A60704765
:10368000F8B5002604464667FDF7D0FE05462068DB
:1036900000686FF07E47000708D52B4600224FF4E4
:1036A00000112046009700F083F960B92068006897
:1036B00040070AD52B4600224FF480012046009790
:1036C00000F076F908B10320F8BD202084F87100DD
:1036D00084F8720084F870600020F8BD10B5806A2C
:1036E0000021A0F85A10A0F85210FEF70CFF10BDF0
:1036F00001680A6822F490720A6001688A6822F000
:1037000001028A60202180F8721000210166704752
:103710002DE9F0410446016880682369E669184391
:1037200063691025002733431843954A0B68954E6B
:10373000334003430B6020684168E36821F4405143
:10374000194341602168A069914201D0236A18435E
:103750008B6823F4306303438B608B4B21688B4869
:1037600099420DD1D0F8880010F0030006D001284E
:103770005AD0022856D0032859D157E0012556E0E7
:10378000834B99420BD1D0F8880010F00C0047D041
:10379000042849D0082845D00C2848D146E07D4B64
:1037A00099420BD1D0F8880010F0300038D01028A2
:1037B0003AD0202836D0302839D137E0764B99429C
:1037C0000BD1D0F8880010F0C00029D040282BD0B1
:1037D000802827D0C0282AD128E0704B99420ED1EA
:1037E000D0F8880010F440701AD0B0F5807F1BD05C
:1037F000B0F5007F16D0B0F5407F18D116E09142A9
:1038000015D1D0F8880010F4406009D0B0F5806F71
:103810000AD0B0F5006F05D0B0F5406F07D105E0D4
:10382000002504E0022502E0042500E008255C4BA9
:1038300000264FF4004091423DD135B1022D07D012
:10384000042D07D0082D10D107E0FEF79FFB03E001
:10385000184602E0FEF7BEFBA8B3626802EB420125
:10386000814202D8B0EB023F01D9012775E0DFF8B1
:1038700034815DB1022D0CD0042D13D0082DF4D16C
:1038800050082905401846F1000105E0FEF77EFBCF
:103890000AE050084449F5E70023FCF791FCA0F545
:1038A000407156E0FEF796FB6268010E0302500875
:1038B00018187141F0E7E1694FF6EF7881422FD196
:1038C000092DD2D200E048E0DFE805F00609200526
:1038D000230505052600C8E7FEF758FB01E0FEF7C3
:1038E00067FB4100D4F8040001EB5001B1FBF0F09C
:1038F00080B2A0F110014145B7D84FF6F0710140F8
:10390000C0F3420001432068C16026E02749606897
:10391000EAE7FEF75FFBE4E74FF480316068E3E736
:10392000092DA2D2DFE805F006091E0522050505CE
:1039300025009AE7FEF72AFB01E0FEF739FB014676
:10394000606801EB500100BFB1FBF0F080B2A0F164
:103950001001414589D82168C860266638466666E8
:10396000BDE8F081606803EB5001EDE7FEF732FB44
:10397000E5E7616800EB5100B0FBF1F0E6E700001D
:1039800000800040F369FFEF003801400010024062
:103990000044004000480040004C004000500040FF
:1039A0000024F400FFFC0F00000024F40048E801AC
:1039B0002DE9F041984617460E460446069D1DE047
:1039C000681C1BD02DB1FDF731FDA0EB0800A8420B
:1039D00014D92068016821F4D071016020688168E1
:1039E00021F001018160202084F8710084F87200C8
:1039F000002084F870000320BDE8F0812068C069D1
:103A000036EA000004D00020B842D9D00020F3E705
:103A10000120F9E70148FEF777BD000034010020DE
:103A2000FEE700000FB4054B10B503A9044A029845
:103A300000F032F810BC5DF814FB00003D560008A1
:103A40006C0000200FB4084B10B504A902AA03981B
:103A500000F022F8044602A9002000F0C1F9204637
:103A600010BC5DF814FB0000E13D000802E008C84E
:103A7000121F08C1002AFAD170477047002001E0E8
:103A800001C1121F002AFBD1704730380A2801D229
:103A900001207047002070472DE9FF4F8BB088460A
:103AA0000546002606E025280BD0DDE90D129047DB
:103AB0006D1C761C28780028F5D10FB0304600F038
:103AC00063B90024A146A2460122AE4900E00443A6
:103AD00015F8013F203B02FA03F00842F7D128789D
:103AE0002A2810D06FF02F022878A0F13001092980
:103AF00015D809EB890102EB410144F0020400EB07
:103B000001096D1CF0E758F8041B5FEA010903D5B1
:103B100044F40054C9F1000944F002046D1C2878F3
:103B20002E2817D115F8010F44F004042A280ED0CE
:103B30006FF02F022878A0F1300109290AD80AEB8A
:103B40008A0102EB410100EB010A6D1CF2E758F813
:103B500004AB6D1C28786C280FD006DC4C2817D0DD
:103B600068280DD06A2814D104E0742810D07A286F
:103B70000FD10DE044F400140AE044F4801401E095
:103B800044F440146978814202D104F580146D1C1C
:103B90006D1C2878692865D006DC00288DD0632844
:103BA00027D0642806D15DE06E2808D073282AD07B
:103BB000752877D0DDE90D129047761CE0E0C4F35C
:103BC0000250022809D003280DD0D8F8001004288C
:103BD0000DD00E6008F10408D2E0D8F80010F217FA
:103BE000C1E90062F6E7D8F800100E80F2E70E7027
:103BF000F0E718F8041B8DF8001000208DF8010084
:103C0000EB46012003E058F804BB4FF0FF3061079A
:103C10004FF0000701D40AE07F1C57450DDA8742B8
:103C2000FADB1BF807100029F6D106E07F1C87425B
:103C3000FCDB1BF807100029F8D1DDE90D23A9EB07
:103C400007008146214600F0B4F83044C61904E06C
:103C5000DDE90D121BF8010B90477F1EF8D22146BB
:103C6000484688E058F8040BC4F302514FF00A0BA1
:103C7000032900D100B2042900D140B2002802DAA1
:103C800040422D2102E0210505D52B218DF824107D
:103C9000012104E006E0E10710D02021F6E708AF9B
:103CA000089113E058F8040BC4F302514FF00A0BCB
:103CB000032900D180B2042900D1C0B20021EEE76F
:103CC0005946FCF77EFD303107F8011D0028F7D179
:103CD000ADEB070000F1200B600702D524F480341F
:103CE00001E04FF0010ADA4502DDAAEB0B0000E02B
:103CF0000020824600EB0B0108980144A9EB01006B
:103D00000A90E00306D4DDE90D2321460A9800F06D
:103D100050F806444FF0000908E009A911F809001D
:103D2000DDE90D12904709F10109761C08998945D2
:103D3000F3DBE0030CD5DDE90D2321460A9800F002
:103D400038F8064404E0DDE90D1230209047761C77
:103D5000BAF10001AAF1010AF5DC05E0DDE90D1276
:103D600017F8010B9047761CBBF10001ABF1010B7A
:103D7000F4DC0A982146DDE90D2300F008F806443A
:103D80006D1C97E60928010030BCBDE8C08F2DE905
:103D9000F041044600251E461746880404D405E079
:103DA00039462020B0476D1C641EF9D52846BDE871
:103DB000F0812DE9F041044600251E469046C803D7
:103DC00001D5302700E02027880404D505E04146CE
:103DD0003846B0476D1C641EF9D52846BDE8F08111
:103DE0000A68531C0B6010707047000010B501F09A
:103DF00057FA00F033FB01F0C3FA01F05BFB00F06F
:103E000075FA00F0B7F900F0F3F801F0B7F800F038
:103E100029F80446012804D005A0FFF703FE204638
:103E200010BD09A0FFF7FEFD0D4901200860F6E76F
:103E30004E42C4A3D7E9CDEAB3C9C8EBCDF8CAA7AF
:103E4000B0DC0D0A000000004E42C4A3D7E9CDEA61
:103E5000B3C9C8EBCDF8C1F7B3CC0D0A0000000020
:103E60004C0000202DE9F04FBDB0434C434D04F110
:103E70005C000DF1D40A00260DF1880905F15C0BF8
:103E8000D04622AFCDF8F000FDF7F2F852223A49C1
:103E90001EA8FCF7C9F9B4F85200ADF8CA0054F8EE
:103EA000540F3390A088ADF8D000E088ADF8D20070
:103EB000152250463C99FCF7B7F9607F8DF8E90070
:103EC000A07F8DF8EA00206A3B902DA01A9068220E
:103ED00049466846543CFCF7A7F90DF1780C9CE87C
:103EE0000F00FFF715F80A20FDF7FEF852222349CC
:103EF0001EA8FCF799F9B5F85200ADF8CA0055F8BC
:103F0000540F3390A888ADF8D000E888ADF8D200FF
:103F1000152259464046FCF787F9687F8DF8E9007D
:103F2000A87F8DF8EA00286A3B9015A01A906822B5
:103F300039466846543DFCF777F90DF1780C9CE85A
:103F40000F00FEF7E5FF4FF47A70FDF7CDF8761C11
:103F50001E2E02DD00240DA007E015A11748FCF776
:103F600087F9002890D0012415A0FFF75BFD3DB034
:103F7000204600F039B8000034010020BC000020C9
:103F800041542B43474154543F000000746865205E
:103F90006263323820617474616368206E6574777F
:103FA0006F726B206973206661696C65640D0A002D
:103FB0002B43474154543A3100000000BC0100201B
:103FC00074686520626332382061747461636820AC
:103FD0006E6574776F726B206973207375636365A8
:103FE000737365640D0A000030BCBDE8C08F00002B
:103FF0002DE9F04FBDB0434C434D04F15C000DF191
:10400000D40A00260DF1880905F15C0BD04622AFD9
:10401000CDF8F000FDF72CF852223A491EA8FCF723
:1040200003F9B4F85200ADF8CA0054F8540F3390B5
:10403000A088ADF8D000E088ADF8D2001522504637
:104040003C99FCF7F1F8607F8DF8E900A07F8DF8CE
:10405000EA00206A3B902DA01A90682249466846E3
:10406000543CFCF7E1F80DF1780C9CE80F00FEF7EA
:104070004FFF0A20FDF738F8522223491EA8FCF70B
:10408000D3F8B5F85200ADF8CA0055F8540F339084
:10409000A888ADF8D000E888ADF8D20015225946BE
:1040A0004046FCF7C1F8687F8DF8E900A87F8DF8DD
:1040B000EA00286A3B9015A01A90682239466846A3
:1040C000543DFCF7B1F80DF1780C9CE80F00FEF7B9
:1040D0001FFF4FF47A70FDF707F8761C1E2E02DDE5
:1040E00000240DA007E014A11648FCF7C1F8002831
:1040F00090D0012414A0FFF795FC3DB0204600F0BD
:1041000035B8000034010020BC00002041542B438E
:10411000455245473F0000007468652062633238AD
:1041200020697320726567697374657220666169BE
:104130006C65640D0A0000002B43455245473A3038
:104140002C310000BC0100207468652062633238A5
:104150002072656769737465722069732073756373
:104160006365737365640D0A0000000030BCBDE830
:10417000C08F00002DE9F04FBDB0434C434D04F11A
:104180005C000DF1D40A00260DF1880905F15C0BE5
:10419000D04622AFCDF8F000FCF76AFF52223A4930
:1041A0001EA8FCF741F8B4F85200ADF8CA0054F864
:1041B000540F3390A088ADF8D000E088ADF8D2005D
:1041C000152250463C99FCF72FF8607F8DF8E900E6
:1041D000A07F8DF8EA00206A3B902DA01A906822FB
:1041E00049466846543CFCF71FF80DF1780C9CE8F2
:1041F0000F00FEF78DFE0A20FCF776FF52222349BE
:104200001EA8FCF711F8B5F85200ADF8CA0055F831
:10421000540F3390A888ADF8D000E888ADF8D200EC
:10422000152259464046FBF7FFFF687F8DF8E900ED
:10423000A87F8DF8EA00286A3B9015A01A906822A2
:1042400039466846543DFBF7EFFF0DF1780C9CE8CA
:104250000F00FEF75DFE4FF49670FCF745FF761CED
:10426000052E02DD00240DA007E013A11448FBF782
:10427000FFFF002890D0012412A0FFF7D3FB3DB030
:10428000204600F02FB8000034010020BC000020C0
:1042900041542B4347534E3D310000007468652064
:1042A0006367736E2071756572792069732066612A
:1042B000696C65640D0A00002B4347534E000000F3
:1042C000BC010020746865206367736E207175659A
:1042D0007279206973207375636365737365640D08
:1042E0000A00000030BCBDE8C08F00002DE9F04F8F
:1042F000BDB0434C434D04F15C000DF1D40A0026DF
:104300000DF1880905F15C0BD04622AFCDF8F00025
:10431000FCF7AEFE52223A491EA8FBF785FFB4F81F
:104320005200ADF8CA0054F8540F3390A088ADF88D
:10433000D000E088ADF8D200152250463C99FBF73A
:1043400073FF607F8DF8E900A07F8DF8EA00206A96
:104350003B902DA01A90682249466846543CFBF7D2
:1043600063FF0DF1780C9CE80F00FEF7D1FD0A20E9
:10437000FCF7BAFE522223491EA8FBF755FFB5F8F9
:104380005200ADF8CA0055F8540F3390A888ADF824
:10439000D000E888ADF8D200152259464046FBF718
:1043A00043FF687F8DF8E900A87F8DF8EA00286A4E
:1043B0003B9015A01A90682239466846543DFBF799
:1043C00033FF0DF1780C9CE80F00FEF7A1FD4FF4D0
:1043D0009670FCF789FE761C1E2E02DD00240CA0D0
:1043E00007E012A11248FBF743FF002890D00124F8
:1043F00010A0FFF717FB3DB0204600F02BB80000DF
:1044000034010020BC00002041542B43494D490099
:104410007468652063696D692071756572792069BA
:1044200073206661696C65640D0A000034363000E3
:10443000BC0100207468652063696D692071756531
:104440007279206973207375636365737365640D96
:104450000A00000030BCBDE8C08F000010B5BAB043
:10446000FCF706FE522237491BA8FBF7DDFE354C50
:10447000B4F85200ADF8BE0054F8540F3090A08844
:10448000ADF8C400E088ADF8C6002E4915225C31B5
:1044900032A8FBF7C9FE607F8DF8DD00A07F8DF8A4
:1044A000DE00206A389028A01A9068221FA968466A
:1044B000FBF7BAFE1BAC94E80F00FEF729FD0A20BB
:1044C000FCF712FE522223491BA8FBF7ADFE214C3C
:1044D000B4F85200ADF8BE0054F8540F3090A088E4
:1044E000ADF8C400E088ADF8C6001A4915225C3169
:1044F00032A8FBF799FE607F8DF8DD00A07F8DF874
:10450000DE00206A389010A01A9068221FA9684621
:10451000FBF78AFE1BAC94E80F00FEF7F9FC4FF4A2
:104520009670FCF7E1FD0CA10C48FBF7A1FE20B151
:1045300001240BA0FFF776FA00E000243AB02046F1
:1045400010BD00003401002041542B434D45453D32
:1045500031000000BC0000204F4B0000BC010020D7
:1045600062633238207265706F72742074686520DF
:104570006572726F7220636F64650D0A000000003F
:104580002DE9F04FFFB0044600264FF480713DA89E
:10459000FBF763FE224644A13DA8FFF753FA474DBF
:1045A000474C05F15C007E900DF1D80B0DF18C0AA3
:1045B00004F15C003DAFD946D0467D90FCF758FD34
:1045C00052223E491FA8FBF72FFEB5F85200ADF866
:1045D000CE0055F8540F3490A888ADF8D400E88880
:1045E000ADF8D600152258467E99FBF71DFE687F70
:1045F0008DF8ED00A87F8DF8EE00286A3C906822C7
:1046000051466846543D1A97FBF70EFE0DF17C0C9F
:104610009CE80F00FEF77CFC0A20FCF765FD5222A7
:1046200027491FA8FBF700FEB4F85200ADF8CE00F2
:1046300054F8540F3490A088ADF8D400E088ADF859
:10464000D600152248467D99FBF7EEFD607F8DF878
:10465000ED00A07F8DF8EE00206A3C906822414674
:104660006846543C1A97FBF7DFFD0DF17C0C9CE883
:104670000F00FEF74DFC4FF49670FCF735FD761CED
:10468000052E02DD00240FA007E019A11948FBF751
:10469000EFFD002892D0012417A0FFF7C3F97FB0E7
:1046A000204600F03FB8000041542B51434F415089
:1046B0004352454154453D2564000000340100202B
:1046C000BC00002074686520626332382063726524
:1046D00061746520636F617020636F6E74657874B8
:1046E000206973206661696C65640D0A0000000032
:1046F0004F4B0000BC0100207468652062633238B3
:104700002063726561746520636F617020636F6EF2
:10471000746578742069732073756363657373655A
:10472000640D0A0030BCBDE8C08F00002DE9F04FD9
:10473000BDB0434C434D04F15C000DF1D40A00269A
:104740000DF1880905F15C0BD04622AFCDF8F000E1
:10475000FCF78EFC52223A491EA8FBF765FDB4F81F
:104760005200ADF8CA0054F8540F3390A088ADF849
:10477000D000E088ADF8D200152250463C99FBF7F6
:1047800053FD607F8DF8E900A07F8DF8EA00206A74
:104790003B902DA01A90682249466846543CFBF78E
:1047A00043FD0DF1780C9CE80F00FEF7B1FB0A20E9
:1047B000FCF79AFC522223491EA8FBF735FDB5F8F9
:1047C0005200ADF8CA0055F8540F3390A888ADF8E0
:1047D000D000E888ADF8D200152259464046FBF7D4
:1047E00023FD687F8DF8E900A87F8DF8EA00286A2C
:1047F0003B9015A01A90682239466846543DFBF755
:1048000013FD0DF1780C9CE80F00FEF781FB4FF4CF
:104810009670FCF769FC761C052E02DD00240DA0C5
:1048200007E017A11748FBF723FD002890D00124CB
:1048300015A0FFF7F7F83DB0204600F03BB80000A8
:1048400034010020BC00002041542B51434F415003
:1048500044454C0074686520626332382064656C9E
:1048600065746520636F617020636F6E7465787422
:10487000206973206661696C65640D0A00000000A0
:104880004F4B0000BC010020746865206263323821
:104890002064656C65746520636F617020636F6E62
:1048A00074657874206973207375636365737365C9
:1048B000640D0A0030BCBDE8C08F00002DE9F04F48
:1048C000FFB0884604461F46154600264FF4807107
:1048D0003DA8FBF7C2FC012C08D0022C0CD0032C05
:1048E00012D0042C10D0052C15D01CE0224650A16B
:1048F0003DA8FFF7A7F816E02B46224650A13DA899
:104900000097FFF79FF80EE04346224652A13DA8CC
:10491000FFF798F807E0CDE900574346224653A138
:104920003DA8FFF78FF8584D584C05F15C007E907C
:104930000DF1D80B0DF18C0A04F15C003DAFD946A6
:10494000D0467D90FCF794FB52224F491FA8FBF7FD
:104950006BFCB5F85200ADF8CE0055F8540F34900A
:10496000A888ADF8D400E888ADF8D60015225846DE
:104970007E99FBF759FC687F8DF8ED00A87F8DF8D4
:10498000EE00286A3C90682251466846543D1A97CA
:10499000FBF74AFC0DF17C0C9CE80F00FEF7B8FA1F
:1049A0000A20FCF7A1FB522238491FA8FBF73CFC68
:1049B000B4F85200ADF8CE0054F8540F3490A088EB
:1049C000ADF8D400E088ADF8D600152248467D99B0
:1049D000FBF72AFC607F8DF8ED00A07F8DF8EE00DC
:1049E000206A3C90682241466846543C1A97FBF77F
:1049F0001BFC0DF17C0C9CE80F00FEF789FA4FF4CC
:104A00009670FCF771FB761C052E02DD002420A0B9
:104A100007E029A12948FBF72BFC002892D00124AC
:104A200027A0FEF7FFFF7FB0204600F05DB8000032
:104A300041542B51434F4150484541443D2564006A
:104A400041542B51434F4150484541443D25642C2E
:104A500025642C257300000041542B51434F4150D5
:104A6000484541443D25642C2564000041542B51A8
:104A7000434F4150484541443D25642C25642C2535
:104A8000642C25730000000034010020BC000020CD
:104A900074686520626332382073657420636F61C7
:104AA0007020686561646572206973206661696C55
:104AB00065640D0A000000004F4B0000BC0100209F
:104AC00074686520626332382073657420636F6197
:104AD0007020686561646572206973207375636313
:104AE00065737365640D0A0030BCBDE8C08F0000BB
:104AF00030B5F9B00C4605464FF4807139A8FBF784
:104B0000ACFB23462A4635A139A8FEF79BFFFCF7EC
:104B1000AFFA522239491BA8FBF786FB374CB4F891
:104B20005200ADF8BE0054F8540F3090A088ADF894
:104B3000C400E088ADF8C600304915225C3132A8C7
:104B4000FBF772FB607F8DF8DD00A07F8DF8DE0043
:104B5000206A389039AD68221FA968461A95FBF77C
:104B600063FB0DF16C0C9CE80F00FEF7A5FA0A2020
:104B7000FCF7BAFA522222491BA8FBF755FB204C3E
:104B8000B4F85200ADF8BE0054F8540F3090A0882D
:104B9000ADF8C400E088ADF8C600194915225C31B3
:104BA00032A8FBF741FB607F8DF8DD00A07F8DF818
:104BB000DE00206A389068221FA968461A95FBF724
:104BC00033FB0DF16C0C9CE80F00FEF775FA4FF407
:104BD000FA70FCF789FA79B030BD00007B22646579
:104BE000766963654964223A222573222C2261701A
:104BF000696B6579223A222573227D0034010020F9
:104C0000BC0000202DE9F04FBFB0424C074636A94A
:104C100004F15C00404DCDE93D100DF18C0B0026F8
:104C200005F15C0A8946D846FCF722FA5222394936
:104C30001FA8FBF7F9FAB4F85200ADF8CE0054F80B
:104C4000540F3490A088ADF8D400E088ADF8D600B9
:104C5000DDE93D011522FBF7E7FA607F8DF8ED00F5
:104C6000A07F8DF8EE00206A3C9068225946684685
:104C7000543C1A97FBF7D8FA0DF17C0C9CE80F0016
:104C8000FEF746F90A20FCF72FFA522222491FA804
:104C9000FBF7CAFAB5F85200ADF8CE0055F8540F3C
:104CA0003490A888ADF8D400E888ADF8D600152275
:104CB00051464846FBF7B8FA687F8DF8ED00A87FAB
:104CC0008DF8EE00286A3C90682241466846543DC3
:104CD0001A97FBF7A9FA0DF17C0C9CE80F00FEF780
:104CE00017F94FF49670FCF7FFF9761C052E02DDDC
:104CF00000240AA007E015A11548FBF7B9FA00281F
:104D000092D0012413A0FEF78DFE3FB0204600F0A4
:104D100039B8000034010020BC0000207468652010
:104D2000626332382073657420636F6170206D6533
:104D30007373616765206F7074696F6E206973208B
:104D40006661696C65640D0A000000004F4B00004D
:104D5000BC0100207468652062633238207365747A
:104D600020636F6170206D657373616765206F707C
:104D700074696F6E206973207375636365737365FF
:104D8000640D0A0030BCBDE8C08F000030B5B9B07A
:104D90000546FCF76DF9522230491BA8FBF744FA8F
:104DA0002E4CB4F85200ADF8BE0054F8540F3090B9
:104DB000A088ADF8C400E088ADF8C60027491522E8
:104DC0005C3132A8FBF730FA607F8DF8DD00A07F00
:104DD0008DF8DE00206A389068221FA968461A956F
:104DE000FBF722FA1BAC94E80F00FEF765F90A20E6
:104DF000FCF77AF952221A491BA8FBF715FA184C4E
:104E0000B4F85200ADF8BE0054F8540F3090A088AA
:104E1000ADF8C400E088ADF8C600114915225C3138
:104E200032A8FBF701FA607F8DF8DD00A07F8DF8D6
:104E3000DE00206A389068221FA968461A95FBF7A1
:104E4000F3F91BAC94E80F00FEF736F939B04FF4D4
:104E5000FA70BDE83040FCF747B90000340100208B
:104E6000BC000020F0B5F9B00E4607461D461446BA
:104E70004FF4807139A8FBF7F0F933463A4636A172
:104E800039A8CDE90045FEF7DDFDFCF7F1F8522227
:104E900038491BA8FBF7C8F9364CB4F85200ADF8F6
:104EA000BE0054F8540F3090A088ADF8C400E088DC
:104EB000ADF8C6002F4915225C3132A8FBF7B4F9D2
:104EC000607F8DF8DD00A07F8DF8DE00206A3890CD
:104ED00039AD68221FA968461A95FBF7A5F90DF1AF
:104EE0006C0C9CE80F00FEF713F80A20FCF7FCF8A6
:104EF000522221491BA8FBF797F91F4CB4F8520026
:104F0000ADF8BE0054F8540F3090A088ADF8C4003E
:104F1000E088ADF8C600184915225C3132A8FBF7CD
:104F200083F9607F8DF8DD00A07F8DF8DE00206AB8
:104F3000389068221FA968461A95FBF775F90DF19C
:104F40006C0C9CE80F00FDF7E3FF4FF49670FCF744
:104F5000CBF879B0F0BD000041542B51434F415084
:104F600053454E443D25642C25642C25732C256423
:104F70000000000034010020BC0000202DE9F04FAB
:104F8000BFB0484C35A904F15C003E90464D22A8C4
:104F90000026CDE93C0105F15C0B8A468146DFF82D
:104FA0000C81434FFCF764F852223E491EA8FBF7E0
:104FB0003BF9B4F85200ADF8CA0054F8540F3390DE
:104FC000A088ADF8D000E088ADF8D200DDE93D0161
:104FD0001522FBF729F9607F8DF8E900A07F8DF895
:104FE000EA00206A3B9033A01A9068226846543C3D
:104FF0003C99FBF719F90DF1780C9CE80F00FDF7CF
:1050000087FF0A20FCF770F8522227491EA8FBF7F9
:105010000BF9B5F85200ADF8CA0055F8540F3390AB
:10502000A888ADF8D000E888ADF8D200152259461E
:105030005046FBF7F9F8687F8DF8E900A87F8DF8F6
:10504000EA00286A3B901BA01A90682249466846ED
:10505000543DFBF7E9F80DF1780C9CE80F00FDF7E3
:1050600057FF4FF49670FCF73FF8114AD8F800004C
:10507000121D12A1801CFBF72BF9761C1E2E04DDDD
:10508000002411A0FEF7CEFC08E07868801F1B28E2
:1050900088D2012413A07968FEF7C4FC3FB02046F3
:1050A00000F032B834010020BC0000205C00002079
:1050B0004C00002041542B43535100002B435351CB
:1050C0003A25642C00000000746865206373712029
:1050D00071756572792069732074696D656F757477
:1050E0000D0A000067657420746865206373712081
:1050F00076616C75652C74686520637371206973C3
:105100002025640D0A00000030BCBDE8C08F0000FF
:105110002DE9F04FBDB0434C434D04F15C000DF15F
:10512000D40A00260DF1880905F15C0BD04622AFA8
:10513000CDF8F000FBF79CFF52223A491EA8FBF77E
:1051400073F8B4F85200ADF8CA0054F8540F339015
:10515000A088ADF8D000E088ADF8D2001522504606
:105160003C99FBF761F8607F8DF8E900A07F8DF82E
:10517000EA00206A3B902DA01A90682249466846B2
:10518000543CFBF751F80DF1780C9CE80F00FDF74B
:10519000BFFE0A20FBF7A8FF522223491EA8FBF7F7
:1051A00043F8B5F85200ADF8CA0055F8540F3390E3
:1051B000A888ADF8D000E888ADF8D200152259468D
:1051C0004046FBF731F8687F8DF8E900A87F8DF83D
:1051D000EA00286A3B9015A01A9068223946684672
:1051E000543DFBF721F80DF1780C9CE80F00FDF71A
:1051F0008FFE4FF49670FBF777FF761C052E02DDCD
:1052000000240FA007E018A11848FBF731F8002888
:1052100090D0012416A0FEF705FC3DB0204600F01A
:105220003BB8000034010020BC00002041542B5149
:10523000434F4150444154415354415455533F000E
:10524000746865206263323820646F206E6F74204A
:10525000676574207468652064617461207374618B
:10526000747573200D0A00004F4B0000BC01002034
:105270007468652062633238207468652062633226
:1052800038206765742074686520646174612073D8
:1052900074617475730D0A0030BCBDE8C08F0000E6
:1052A00010B5BAB0FBF7E4FE522231491BA8FAF759
:1052B000BBFF2F4CB4F85200ADF8BE0054F8540FA9
:1052C0003090A088ADF8C400E088ADF8C600284949
:1052D00015225C3132A8FAF7A7FF607F8DF8DD0058
:1052E000A07F8DF8DE00206A389022A01A906822F4
:1052F0001FA96846FAF798FF1BAC94E80F00FDF76A
:1053000007FE0A20FBF7F0FE52221C491BA8FAF701
:105310008BFF1A4CB4F85200ADF8BE0054F8540F8D
:105320003090A088ADF8C400E088ADF8C6001349FD
:1053300015225C3132A8FAF777FF607F8DF8DD0027
:10534000A07F8DF8DE00206A38900AA01A906822AB
:105350001FA96846FAF768FF1BAC94E80F00FDF739
:10536000D7FD3AB04FF4FA70BDE81040FBF7BCBE71
:10537000340100204154453000000000BC000020F2
:1053800010B5BAB0FBF774FE522237491BA8FAF7E2
:105390004BFF354CB4F85200ADF8BE0054F8540F32
:1053A0003090A088ADF8C400E088ADF8C6002E4962
:1053B00015225C3132A8FAF737FF607F8DF8DD00E7
:1053C000A07F8DF8DE00206A389028A01A9068220D
:1053D0001FA96846FAF728FF1BAC94E80F00FDF7F9
:1053E00097FD0A20FBF780FE522227491BA8FAF7F7
:1053F0001BFF254CB4F85200ADF8BE0054F8540F12
:105400003090A088ADF8C400E088ADF8C6001E4911
:1054100015225C3132A8FAF707FF607F8DF8DD00B6
:10542000A07F8DF8DE00206A389010A01A906822C4
:105430001FA96846FAF7F8FE1BAC94E80F00FDF7C9
:1054400067FD4FF49670FBF74FFE10A11048FAF776
:105450000FFF20B101240FA0FEF7E4FA00E00024C2
:105460003AB0204610BD00003401002041542B4EBC
:10547000434F4E4649473D4155544F434F4E4E458D
:1054800043542C5452554500BC0000204F4B0000A3
:10549000BC0100207365742062633238206E636F34
:1054A0006E666967206175746F636F6E6E65637495
:1054B0000D0A000010B5BAB0FBF7DAFD52223749E9
:1054C0001BA8FAF7B1FE354CB4F85200ADF8BE0097
:1054D00054F8540F3090A088ADF8C400E088ADF8BF
:1054E000C6002E4915225C3132A8FAF79DFE607F76
:1054F0008DF8DD00A07F8DF8DE00206A389028A0AE
:105500001A9068221FA96846FAF78EFE1BAC94E831
:105510000F00FDF7FDFC0A20FBF7E6FD52222249B1
:105520001BA8FAF781FE204CB4F85200ADF8BE007B
:1055300054F8540F3090A088ADF8C400E088ADF85E
:10554000C600194915225C3132A8FAF76DFE607F5A
:105550008DF8DD00A07F8DF8DE00206A389010A065
:105560001A9068221FA96846FAF75EFE1BAC94E801
:105570000F00FDF7CDFC4FF4FA50FBF7B5FD0BA182
:105580000B48FAF775FE20B101240AA0FEF74AFA8B
:1055900000E000243AB0204610BD00003401002095
:1055A00041542B4E52420000BC0000204F4B0000E3
:1055B000BC01002062633238207265736574206913
:1055C000732066696E69736865640D0A00000000E7
:1055D0002DE9F04786B090468946824600261DE0B8
:1055E0004D465446002714220FA16846FAF71CFEC8
:1055F00068460DE029787F1C00EB1111097804F84A
:10560000011B15F8011B01F00F01415C04F8011B9F
:105610004745EFD30020761C2070F6B24645DFD315
:1056200006B0BDE8F087000030313233343536370C
:1056300038394142434445460000000013B54FF657
:10564000FF73012269460248FDF7EEF800981CBD81
:10565000340100201CB5FCF76DF9FDF709FFFDF7DB
:105660005BFB6420FBF740FDFDF72CFCFDF7F0FB36
:10567000002000900190012319A21CA11E48FEF7F2
:10568000D1F9012202214FF09040FBF7CAFE1BA086
:10569000FEF7C8F94FF47A70FBF726FD01222021AE
:1056A0002048FBF7BEFE4FF49670FBF71DFD01226C
:1056B00011031D48FBF7B5FE41F288342046FBF785
:1056C00013FDFEF793FB194DFBF758FC2046FBF743
:1056D0000BFD00F08FF82846FBF706FDF4E700000D
:1056E0004D617920323720323032300031373A354F
:1056F000303A3232000000009C5E00086F70656E28
:1057000020746865206E62696F7420616E64206C1D
:10571000736D3664736C277320706F7765720D0A32
:1057200000000000000800480004004880EE360039
:1057300008B5FFF7EDFC16486A460FA10068801C0B
:10574000FAF7C6FD009858B101280BD002280DD0F9
:1057500003280DD004280DD0052806D10DA002E0A5
:1057600010A000E012A0FEF75DF908BD15A0FAE751
:1057700018A0F8E719A0F6E72B51434F41504441D8
:1057800054415354415455533A25642C00000000B1
:105790005C000020BBF1B5C3D6D8D6C3D0C5CFA21C
:1057A0000A000000CAFDBEDDCEB4B7A2CBCD0A0010
:1057B000D2D1B7A2CBCDB5C8B4FD494F54BBD8D3D5
:1057C000A60A0000B7A2CBCDCAFDBEDDCAA7B0DCD9
:1057D0000A000000B3ACCAB10A0000003E3E3E3EE3
:1057E0003E3EB7A2CBCDB3C9B9A63E3E3E3E3E3EFD
:1057F0003E0A00002DE9F0418AB000244FF4007108
:105800004148FAF72AFD41480068002878D000F0A6
:1058100085F90646FAF754FD00286DD03046FAF7B0
:105820004FFDC2B231466846FFF7D2FE6B460822F2
:1058300043F274610220FFF741F835A0FFF7E2F967
:10584000414E41F235674FF47A783B463FA2022140
:105850000020FFF707FB3E213068FAF727FDD8B19B
:10586000294C01203DA12070E01CFEF7EBF885B229
:10587000280A6070A5702046FFF788FA00F0E0F86B
:105880002A46E11C3DA0FEF7CDF84FF47A60FBF705
:105890002BFCFFF74DFF31E030683EA1801CFAF78A
:1058A000E7FC00281ED0306808AA3FA1801CFAF748
:1058B0000FFD43490898884201D142A003E04649C0
:1058C000884203D145A0FEF7ADF817E0474988426A
:1058D00001D147A0F7E74A49884201D149A0F2E740
:1058E0004CA0F0E7032C09D8641CA4B24046FBF797
:1058F000FBFBAAE704E0FFE74BA0E4E7FEF716FF97
:105900000AB02846BDE8F081BC0300204C0000200E
:1059100041542B51434F41504F5054494F4E3D330A
:105920002C31312C222F6465766963652F64617494
:1059300061706F696E7473222C31372C34322C31C4
:10594000322C3432000000005C0000203231392E4D
:105950003134322E37302E32313500007B22323650
:1059600036373236223A7B224C315F4C465F312249
:105970003A37302E30307D7D0000000073656E6454
:10598000206D73672025732C6C656E677468202505
:10599000640A00002B51434F41505552433A202294
:1059A000727370222C322C002B51434F41505552B0
:1059B000433A2022727370222C322C25662C000070
:1059C000333303403E3E3E3E7375636365737366D7
:1059D000756C3E3E3E3E0A0085EB01403E3E3E3E3B
:1059E000CEDED0A73E3E3E3E0A000000C3F580401A
:1059F0003E3E3E3EB1BBBDFBD6B93E3E3E3E0A00FA
:105A0000EC5180403E3E3E3ECEB4CADAC8A83E3E8F
:105A10003E3E0A003E3E3E3EB4EDCEF3B4FDB4A69B
:105A2000C0ED3E3E3E3E0A0047657420746F6B65D4
:105A30006E2076616C7565206661696C0A000000F5
:105A400030B5BBB01A208DF8E400FBF711FB5222F1
:105A500030491BA8FAF7E8FB2E4CB4F85200ADF819
:105A6000BE0054F8540F3090A088ADF8C400E08810
:105A7000ADF8C600274915225C3132A8FAF7D4FBED
:105A8000607F8DF8DD00A07F8DF8DE00206A389001
:105A900039AD68221FA968461A95FAF7C5FB1BACF9
:105AA00094E80F00FDF708FB0A20FBF71DFB5222CC
:105AB00019491BA8FAF7B8FB174CB4F85200ADF817
:105AC000BE0054F8540F3090A088ADF8C400E088B0
:105AD000ADF8C600104915225C3132A8FAF7A4FBD4
